:020000040800F2
:10000000A8110020B90B0008250C0008250C0008D9
:10001000250C0008250C0008250C00080000000035
:10002000000000000000000000000000250C000897
:10003000250C000800000000250C0008351B0008F6
:10004000250C0008250C0008250C0008250C0008CC
:10005000250C0008250C0008D92A0008252B0008CB
:10006000712B0008250C0008250C0008250C000841
:10007000250C0008250C0008250C0008250C00089C
:10008000250C0008250C0008250C0008250C00088C
:10009000250C0008250C0008250C0008250C00087C
:1000A000250C0008250C0008250C0008250C00086C
:1000B00051200008250C0008250C0008250C00081C
:1000C000250C0008250C0008250C0008250C00084C
:1000D000250C0008250C0008250C0008250C00083C
:1000E000250C0008250C0008250C0008250C00082C
:1000F000250C0008250C0008250C0008250C00081C
:10010000250C0008250C0008250C0008250C00080B
:10011000250C0008250C0008250C0008250C0008FB
:10012000250C0008250C0008250C0008250C0008EB
:10013000250C0008250C0008250C0008250C0008DB
:10014000250C0008250C0008250C0008250C0008CB
:10015000250C0008250C0008250C0008A526000821
:10016000250C0008250C0008250C0008250C0008AB
:10017000250C0008250C0008250C0008250C00089B
:10018000250C0008250C000890B484B000AF02468E
:100190000B46FA71BB714FF00003FB60BB7903F0B3
:1001A00003034FEA83034FF00F0202FA03F3FB60ED
:1001B0004FF46053C4F20103BA794FEA9202D2B20B
:1001C00010464FF46052C4F20102B9794FEA91012E
:1001D000C9B201F1020152F82110FA686FEA020275
:1001E000114000F1020243F822104FF46053C4F2B0
:1001F0000103BA794FEA9202D2B210464FF460522C
:10020000C4F20102B9794FEA9101C9B201F10201C8
:1002100052F82110FC79BA7902F003024FEA820207
:1002200004FA02F2114300F1020243F8221007F12E
:100230001007BD4690BC704780B485B000AF7860B1
:1002400040F69C13C2F200031A687B6802FB03F3BA
:10025000FB6040F21003C2F200031A684FF415432A
:10026000C0F6BA239A420AD040F21003C2F2000349
:100270001A684FF46143C0F2F5539A4207D140F631
:100280009C13C2F200031B68FA68D31AFB6000BF1C
:10029000FB68002B0CBF00230123DBB2FA6802F1DC
:1002A000FF32FA60002BF3D107F11407BD4680BC82
:1002B000704700BF80B582B000AF02460B46FA71AE
:1002C000BB7101F0EFFC00F01FFA4AF6C870FFF7AF
:1002D000B3FF40F6A003C2F20003BA79DA7040F629
:1002E000A003C2F20003FA791A7140F6A003C2F229
:1002F00000034FF000025A7140F6A003C2F200035F
:100300004FF000029A7140F6A003C2F200034FF0D2
:1003100000025A70BB79012B0CD940F6A003C2F23F
:1003200000035B7843F00803DAB240F6A003C2F2A0
:1003300000035A704FF0030000F03AF941F29410B4
:10034000FFF77AFF4FF0030000F032F941F294100A
:10035000FFF772FF4FF0030000F02AF941F294100A
:10036000FFF76AFF4FF0020000F022F94FF064003F
:10037000FFF762FF40F6A003C2F200035B7843F090
:100380002003DBB2184600F0D7F840F6A003C2F213
:1003900000034FF004021A7000F0B2F800F01AF8EF
:1003A00040F6A003C2F200034FF002029A7040F63A
:1003B000A003C2F200039B7843F00403DBB21846AB
:1003C00000F0BAF841F29410FFF736FF07F1080782
:1003D000BD4680BD80B500AF4FF0010000F0ACF825
:1003E00040F6B830FFF728FF80BD00BF80B582B06F
:1003F00000AF0B463A600246FA71BB71FA79BB79DD
:100400001046194600F044F972E040F6A003C2F22B
:1004100000035A7940F6A003C2F200031B799A4206
:1004200021D340F6A003C2F200034FF000025A713C
:1004300040F6A003C2F200039B7903F10103DAB294
:1004400040F6A003C2F200039A7140F6A003C2F284
:1004500000035A7940F6A003C2F200039B791046CC
:10046000194600F015F93B681B780A2B1BD140F6A2
:10047000A003C2F200039B7903F10103DAB240F654
:10048000A003C2F200039A7140F6A003C2F2000377
:100490005A7940F6A003C2F200039B791046194630
:1004A00000F0F6F820E03B681B780D2B0AD140F6EF
:1004B000A003C2F200039B794FF00000194600F040
:1004C000E7F811E03B681B78184600F053F840F657
:1004D000A003C2F200035B7903F10103DAB240F634
:1004E000A003C2F200035A713B6803F101033B60B1
:1004F0003B681B78002B88D107F10807BD4680BDFB
:1005000080B500AF40F6A003C2F200031B7843F0B1
:100510000403DAB240F6A003C2F200031A7040F6F8
:10052000A003C2F200031B7843F00803DBB21846B5
:1005300000F002F880BD00BF80B582B000AF034676
:10054000FB714FF48053C4F202034FF001025A834F
:10055000FB794FEA1313DBB2184600F029F8FB7958
:1005600003F00F03DBB2184600F022F807F108078A
:10057000BD4680BD80B582B000AF0346FB714FF42D
:100580008053C4F202034FF001021A83FB794FEA51
:100590001313DBB2184600F00BF8FB7903F00F03DE
:1005A000DBB2184600F004F807F10807BD4680BD2D
:1005B00080B582B000AF0346FB71FB7903F00803FE
:1005C000002B07D04FF48053C4F202034FF02002F7
:1005D0001A8306E04FF48053C4F202034FF0200266
:1005E0005A83FB7903F00403002B07D04FF48053A8
:1005F000C4F202034FF010021A8306E04FF4805356
:10060000C4F202034FF010025A83FB7903F0020395
:10061000002B07D04FF48053C4F202034FF00802BE
:100620001A8306E04FF48053C4F202034FF008022D
:100630005A83FB7903F00103002B07D04FF480535A
:10064000C4F202034FF004021A8306E04FF4805311
:10065000C4F202034FF004025A834FF48053C4F2F1
:1006600002034FF002021A834FF01400FFF7E4FD7B
:100670004FF48053C4F202034FF002025A834FF04A
:100680001400FFF7D9FD07F10807BD4680BD00BF84
:1006900080B584B000AF02460B46FA71BB7149F6D3
:1006A0001033C0F6000307F10C021868106040F622
:1006B000A003C2F20003DB78BA799A4202D34FF06A
:1006C0000003BB7140F6A003C2F20003FA795A712D
:1006D00040F6A003C2F20003BA799A71BB7907F120
:1006E0001002D31813F8042CFB79D318DBB2DBB259
:1006F00063F07F03DBB2DBB21846FFF71DFF07F1A3
:100700001007BD4680BD00BF80B582B002AF4FF07C
:10071000000300934FF0000301934FF48050C4F2A4
:1007200002004FF001014FF001024FF0000302F010
:10073000D7FF4FF0000300934FF0000301934FF4F5
:100740008050C4F202004FF002014FF001024FF05E
:10075000000302F0C5FF4FF0000300934FF00003C9
:1007600001934FF48050C4F202004FF004014FF0A7
:1007700001024FF0000302F0B3FF4FF000030093BB
:100780004FF0000301934FF48050C4F202004FF089
:1007900008014FF001024FF0000302F0A1FF4FF0FB
:1007A000000300934FF0000301934FF48050C4F214
:1007B00002004FF010014FF001024FF0000302F071
:1007C0008FFF4FF0000300934FF0000301934FF4AD
:1007D0008050C4F202004FF020014FF001024FF0B0
:1007E000000302F07DFF4FF48053C4F202034FF088
:1007F00001025A834FF48053C4F202034FF0020205
:100800005A834FF48053C4F202034FF004025A8318
:100810004FF48053C4F202034FF008025A834FF49E
:100820008053C4F202034FF010025A834FF48053F6
:10083000C4F202034FF020025A83BD4680BD00BFC0
:1008400080B58AB000AF786039604FF000037B62FA
:100850004FF000033B624FF00003FB614FF00003D9
:10086000BB617B681B8A9BB27B627B6A23F440532B
:100870007B623B68DB887A6A13437B627B6A9AB24D
:100880007B681A827B689B899BB27B627B6A23F4BC
:10089000B05323F00C037B623B689A883B681B894A
:1008A00013439AB23B685B8913439BB27A6A134342
:1008B0007B627B6A9AB27B689A817B689B8A9BB2D7
:1008C0007B627B6A23F440737B623B689B897A6A14
:1008D00013437B627B6A9AB27B689A8207F10803B2
:1008E000184600F071FD7A684FF48053C4F201039A
:1008F0009A4206D07A684FF4A053C4F201039A4298
:1009000002D17B693B6201E03B693B627B689B896A
:100910009BB29BB21BB2002B0FDA3A6A13464FEA26
:1009200083039B184FEA83029A183B681B684FEABF
:100930004303B2FBF3F3FB610EE03A6A13464FEA5E
:1009400083039B184FEA83029A183B681B684FEA9F
:100950008303B2FBF3F3FB61FA6948F21F53C5F25C
:10096000EB13A3FB02134FEA53134FEA03137B620B
:100970007B6A4FEA13134FF0640202FB03F3FA6938
:10098000D31ABB617B689B899BB29BB21BB2002BC5
:1009900012DABB694FEAC30303F1320248F21F5374
:1009A000C5F2EB13A3FB02134FEA531303F0070343
:1009B0007A6A13437B6211E0BB694FEA031303F1C8
:1009C000320248F21F53C5F2EB13A3FB02134FEAA6
:1009D000531303F00F037A6A13437B627B6A9AB264
:1009E0007B681A8107F12807BD4680BD80B483B0BB
:1009F00000AF78600B46FB70FB78002B08D07B685B
:100A00009B899BB243F400539AB27B689A8107E0BA
:100A10007B689B899BB223F400539AB27B689A81CE
:100A200007F10C07BD4680BC704700BF80B483B09F
:100A300000AF78607B689B889BB24FEAC3534FEA54
:100A4000D3539BB2184607F10C07BD4680BC7047D4
:100A500080B487B000AF786013460A467A807B7016
:100A60004FF000033B614FF00003FB604FF00003C9
:100A7000BB604FF000037B617B687B617B88DBB2EE
:100A80004FEA5313DBB23B617B8803F01F03FB602B
:100A9000FB684FF0010202FA03F3BB603B69012BD4
:100AA00004D17B6903F10C037B610BE03B69022BF2
:100AB00004D17B6903F110037B6103E07B6903F1DF
:100AC00014037B617B78002B06D07B697A691168FF
:100AD000BA680A431A6007E07B697A691168BA68E4
:100AE0006FEA02020A401A6007F11C07BD4680BC8B
:100AF000704700BF80B487B000AF78600B467B8042
:100B00004FF00003FB604FF000037B614FF00003E8
:100B1000BB604FF00003FB747B88DBB24FEA5313DA
:100B2000DBB2BB607B8803F01F037B617B694FF006
:100B3000010202FA03F37B61BB68012B06D17B68DB
:100B40009B899BB27A6913407B610FE0BB68022BE3
:100B500006D17B681B8A9BB27A6913407B6105E0F2
:100B60007B689B8A9BB27A6913407B617B884FEAE2
:100B700013239BB2FB60FB684FF0010202FA03F300
:100B8000FB607B681B889BB2FA681340FB607B6943
:100B9000002B06D0FB68002B03D04FF00103FB7441
:100BA00002E04FF00003FB74FB7C184607F11C07C2
:100BB000BD4680BC704700BF80B582B000AF49F62B
:100BC000A843C0F600037B6040F20003C2F20003BA
:100BD0003B600BE07B681A683B681A603B6803F176
:100BE00004033B607B6803F104037B603A6840F6D2
:100BF0009C03C2F200039A42ECD3084808494FF024
:100C000000028842B8BF40F8042BFFF6FAAF00F0AC
:100C10002BF807F10807BD4680BD0000A0080020A2
:100C2000A409002080B400AFFEE700BF80B485B007
:100C300000AF786040F6AC03C2F200031B68FB60B3
:100C400000E030BF40F6AC03C2F200031A68FB6854
:100C5000D21A7B689A42F4D307F11407BD4680BCD0
:100C6000704700BF00000000B0B58CB000AF4FF07F
:100C700000024FF00003C7E908234FF000024FF0D5
:100C80000003C7E906234FF000024FF00003C7E955
:100C90000A234FF000024FF00003C7E9042340F697
:100CA0006813C2F200034FF000004FF00001C3E9E7
:100CB000000140F63A13C2F200034FF000021A801E
:100CC00040F63C13C2F200034FF001021A7040F6E6
:100CD0003C13C2F200031A7840F67813C2F2000304
:100CE0001A7040F62013C2F200034FF000021A708F
:100CF00040F67A13C2F200034FF000021A8040F669
:100D00004813C2F200034FF000004FF00001C3E9A6
:100D1000000140F63813C2F200034FF000021A80BF
:100D20004FF00103FB7340F66013C2F200034FF073
:100D300000021A7040F62813C2F200034FF00000C0
:100D40004FF00001C3E9000101F01CF84FF44060CE
:100D5000C4F202004FF0E00101F0FEFF01F0B6FA2C
:100D600001F03AF802F05AF84FF010004FF002018B
:100D7000FFF7A0FAFFF72EFB01F026FB01F07EFB48
:100D800001F076FA01F010FC01F0D2F84FF0000308
:100D9000BB734FF000037B734FF000033B733B7B4F
:100DA0004FEA8303DAB27B7B4FEA4303DBB21343A0
:100DB000DAB2BB7B1343DBB2FB724FF44060C4F288
:100DC00002004FF0E00101F0C7FF4FF4FA70FFF7A7
:100DD0002DFF40F69013C2F200034FF000021A609C
:100DE00040F69013C2F200034FF000025A6040F642
:100DF0009013C2F200034FF000029A6040F65013C5
:100E0000C2F200034FF000021A7046E04FF40050A7
:100E1000C4F2010000F0E6FD40F69013C2F20003B8
:100E20001A6840F68813C2F200031B889BB2D218DE
:100E300040F69013C2F200031A6040F69013C2F21B
:100E400000035A6840F68813C2F200035B889BB225
:100E5000D21840F69013C2F200035A6040F6901385
:100E6000C2F200039A6840F68813C2F200039B881E
:100E70009BB2D21840F69013C2F200039A6040F67B
:100E80005013C2F200031B78DBB203F10103DAB2A4
:100E900040F65013C2F200031A7040F65013C2F22B
:100EA00000031B78DBB2072BB0D940F69013C2F2D7
:100EB00000031B684FEAD30240F69013C2F200030E
:100EC0001A6040F69013C2F200035B684FEAD30247
:100ED00040F69013C2F200035A6040F69013C2F23B
:100EE00000039B684FEAD30240F69013C2F200035E
:100EF0009A6040F69013C2F200031B68184603F094
:100F0000F3F840F63013C2F20003C3E9000140F6E3
:100F10009013C2F200034FF000021A6040F69013E3
:100F2000C2F200034FF000025A6040F69013C2F282
:100F300000034FF000029A6040F65013C2F2000323
:100F40004FF000021A7046E04FF40050C4F2010066
:100F500000F048FD40F69013C2F200031A6840F614
:100F60008813C2F200031B889BB2D21840F690137C
:100F7000C2F200031A6040F69013C2F200035A68EE
:100F800040F68813C2F200035B889BB2D21840F689
:100F90009013C2F200035A6040F69013C2F20003AD
:100FA0009A6840F68813C2F200039B889BB2D2185D
:100FB00040F69013C2F200039A6040F65013C2F25A
:100FC00000031B78DBB203F10103DAB240F65013E1
:100FD000C2F200031A7040F65013C2F200031B78ED
:100FE000DBB2072BB0D940F69013C2F200031B68A6
:100FF0004FEAD30240F69013C2F200031A6040F6A3
:101000009013C2F200035B684FEAD30240F69013DC
:10101000C2F200035A6040F69013C2F200039B68CC
:101020004FEAD30240F69013C2F200039A6040F6F2
:101030009013C2F200031B68184603F055F840F6FF
:101040004813C2F20003D3E9002302F011FF024665
:101050000B461046194640F64813C2F20003C3E996
:10106000000140F63813C2F200031B889BB203F163
:1010700001039AB240F63813C2F200031A8040F618
:101080003813C2F200031B889BB2FA2B2FD140F613
:101090004813C2F20003D3E9004540F63813C2F208
:1010A00000031B889BB2184603F02EF802460B463D
:1010B0002046294603F0B8F902460B461046194669
:1010C00040F64013C2F20003C3E9000140F64813A2
:1010D000C2F200034FF000004FF00001C3E900012D
:1010E00040F63813C2F200034FF000021A8040F6B7
:1010F0009013C2F200039A6840F2EE239A4240F243
:10110000168140F69013C2F200039B68184602F065
:10111000EBFF02460B46104619464FF000024FF413
:101120002043C4F2840302F0A1FE02460B4610469F
:1011300019464FF000024FF0804303F075F9024664
:101140000B46C7E9042340F69013C2F200031B6864
:10115000184602F0C9FF40F63013C2F20003D3E98B
:10116000002302F083FE02460B46D7E9040102F099
:101170007DFE02460B461046194640F68013C2F229
:101180000003C3E9000140F68013C2F20003D3E973
:10119000002310461946D7E90A2302F067FE0246EB
:1011A0000B461046194640F62813C2F20003D3E955
:1011B000002302F05DFE02460B461046194640F63B
:1011C0002813C2F20003C3E9000140F68013C2F203
:1011D0000003D3E900231046194677A3D3E900237F
:1011E00002F0F8FF02460B4614461D4640F628134F
:1011F000C2F20003D3E900231046194670A3D3E9D5
:10120000002302F0E7FF02460B462046294602F083
:101210002FFE02460B461046194640F65813C2F2FE
:101220000003C3E9000140F65813C2F20003D3E9FA
:101230000023C7E9082340F65813C2F20003D3E99C
:101240000023104619464FF000024FF48043C4F2C9
:10125000BF0303F04FFA0346002B0BD040F65813A0
:10126000C2F200034FF000004FF48041C4F2BF010E
:10127000C3E9000140F65813C2F20003D3E900238A
:10128000104619464FF000024FF0000303F014FA25
:101290000346002B09D040F65813C2F200034FF06A
:1012A00000004FF00001C3E9000140F65813C2F2FC
:1012B0000003D3E90023C7E90623D7E90801D7E9EA
:1012C000062302F0D3FD02460B46104619463CA306
:1012D000D3E9002302F07EFF02460B46C7E90A234A
:1012E00040F65813C2F20003D3E900231046194612
:1012F00003F00AFA03469AB240F62213C2F2000340
:101300001A8040F62213C2F200031B889AB240F6FC
:101310007A13C2F200031A8040F63A13C2F20003B5
:101320001B889BB2092B09D801F0D8F906E040F6DA
:101330007A13C2F200034FF000021A804FF40063E8
:10134000C4F2000340F67A12C2F20002118840F69D
:101350005212C2F20002128892B20A4092B25A634A
:101360004FF40063C4F2000340F67A12C2F20002A6
:10137000118840F65412C2F20002128892B20A405A
:1013800092B29A634FF40063C4F2000340F67A12FB
:10139000C2F20002118840F67C12C2F200021288EA
:1013A00092B20A4092B2DA634FF00100FFF73EFCBE
:1013B000ADE500BFAFF300800DE02D90A0F809402F
:1013C00020FD1A575919F83F80B489B000AF7860F2
:1013D0004FF00003BB614FF000037B614FF000034F
:1013E000FB614FF002033B614FF00003FB604FF0E5
:1013F0000203BB604FF46053C4F202039B6803F026
:101400000C03BB61BB69042B0AD0082B0FD0002B47
:1014100060D17A684FF41053C0F2F403136060E0B7
:101420007A684FF49053C0F27A03136059E04FF496
:101430006053C4F202035B6803F480034FEA9353E2
:10144000FB604FF46053C4F202035B6803F03F0398
:10145000BB60FB68002B14D04FF49053C0F27A03AA
:10146000BA68B3FBF2F24FF46053C4F20203596856
:1014700047F6C0730B404FEA931303FB02F3FB6183
:1014800013E04FF41053C0F2F403BA68B3FBF2F266
:101490004FF46053C4F20203596847F6C0730B401F
:1014A0004FEA931303FB02F3FB614FF46053C4F262
:1014B00002035B6803F440334FEA134303F1010373
:1014C0004FEA43033B61FA693B69B2FBF3F27B6885
:1014D0001A6006E07A684FF41053C0F2F403136008
:1014E00000BF4FF46053C4F202039B6803F0F003A3
:1014F000BB61BB694FEA1313BB6140F20003C2F248
:101500000003BA699B181B78DBB27B617B681A68A1
:101510007B6922FA03F27B685A604FF46053C4F28D
:1015200002039B6803F4E053BB61BB694FEA93235A
:10153000BB6140F20003C2F20003BA699B181B783A
:10154000DBB27B617B685A687B6922FA03F27B68B5
:101550009A604FF46053C4F202039B6803F4604343
:10156000BB61BB694FEA5333BB6140F20003C2F277
:101570000003BA699B181B78DBB27B617B685A68F1
:101580007B6922FA03F27B68DA6007F12407BD4623
:1015900080BC704780B483B000AF78600B46FB70AE
:1015A000FB78002B0CD04FF46053C4F202034FF4CD
:1015B0006052C4F20202116B7A680A431A630DE0AA
:1015C0004FF46053C4F202034FF46052C4F20202BB
:1015D000116B7A686FEA02020A401A6307F10C077E
:1015E000BD4680BC704700BF80B483B000AF786058
:1015F0000B46FB70FB78002B0CD04FF46053C4F209
:1016000002034FF46052C4F20202116C7A680A437A
:101610001A640DE04FF46053C4F202034FF46052B9
:10162000C4F20202116C7A686FEA02020A401A647C
:1016300007F10C07BD4680BC704700BF80B483B083
:1016400000AF78600B46FB70FB78002B0CD04FF49A
:101650006053C4F202034FF46052C4F20202516CB0
:101660007A680A435A640DE04FF46053C4F20203EF
:101670004FF46052C4F20202516C7A686FEA0202BF
:101680000A405A6407F10C07BD4680BC704700BF92
:1016900080B485B000AF786039604FF00003FB6024
:1016A0004FF00003FB727B685B68FB60FB6823F014
:1016B000407323F48073FB603B681B794FEA03227D
:1016C0003B681B681343FA681343FB607B68FA6846
:1016D0005A607B689B68FB60FA684FF2FD73CCF23E
:1016E000FF031340FB603B681A693B68DB681A43E1
:1016F0003B689B681A433B685B794FEA430313439B
:10170000FA681343FB607B68FA689A607B68DB6A5F
:10171000FB60FB6823F47003FB603B681B7D03F1F7
:10172000FF33DAB2FB7A1343FB72FB7A4FEA0353BF
:10173000FA681343FB607B68FA68DA6207F1140702
:10174000BD4680BC704700BF80B483B000AF7860F6
:101750007B684FF000021A607B684FF000021A713C
:101760007B684FF001025A717B684FF000029A606B
:101770007B684FF00002DA607B684FF000021A616C
:101780007B684FF001021A7507F10C07BD4680BC5B
:10179000704700BF80B485B000AF78604FF00003A1
:1017A000FB604FF40C53C4F201035B68FB60FA6802
:1017B00043F2E003CFF6FC731340FB607B681A68CA
:1017C0007B685B681A437B689B681A437B68DB68AD
:1017D0001343FA681343FB604FF40C53C4F2010344
:1017E000FA685A6007F11407BD4680BC704700BF15
:1017F00080B483B000AF78600B46FB70FB78002BA1
:1018000006D07B689B6843F001027B689A6005E024
:101810007B689B6823F001027B689A6007F10C07E4
:10182000BD4680BC704700BF80B485B000AF786013
:10183000F970BA707B704FF00003FB604FF000034B
:10184000BB60FB78092B27D97B68DB68FB60FA78E3
:1018500013464FEA43039B18A3F11E034FF0070200
:1018600002FA03F3BB60BB686FEA0303FA68134034
:10187000FB607978FA7813464FEA43039B18A3F18B
:101880001E0301FA03F3BB60FA68BB681343FB60F5
:101890007B68FA68DA6022E07B681B69FB60FA7893
:1018A00013464FEA43039B184FF0070202FA03F373
:1018B000BB60BB686FEA0303FA681340FB6079788A
:1018C000FA7813464FEA43039B1801FA03F3BB600F
:1018D000FA68BB681343FB607B68FA681A61BB78DF
:1018E000062B27D87B685B6BFB60BB7803F1FF326C
:1018F00013464FEA83039B184FF01F0202FA03F3CB
:10190000BB60BB686FEA0303FA681340FB60F978B9
:10191000BB7803F1FF3213464FEA83039B1801FAA9
:1019200003F3BB60FA68BB681343FB607B68FA682B
:101930005A6351E0BB780C2B27D87B681B6BFB608C
:10194000BA7813464FEA83039B18A3F123034FF0A1
:101950001F0202FA03F3BB60BB686FEA0303FA6875
:101960001340FB60F978BA7813464FEA83039B185B
:10197000A3F1230301FA03F3BB60FA68BB681343C6
:10198000FB607B68FA681A6326E07B68DB6AFB60B1
:10199000BA7813464FEA83039B18A3F141034FF033
:1019A0001F0202FA03F3BB60BB686FEA0303FA6825
:1019B0001340FB60F978BA7813464FEA83039B180B
:1019C000A3F1410301FA03F3BB60FA68BB68134358
:1019D000FB607B68FA68DA6207F11407BD4680BCD9
:1019E000704700BF80B483B000AF78607B689B68AD
:1019F00043F080427B689A6007F10C07BD4680BCCB
:101A0000704700BF80B483B000AF78600B46FB70B6
:101A1000FB78002B06D07B689B6843F480727B6860
:101A20009A6005E07B689B6823F480727B689A600B
:101A300007F10C07BD4680BC704700BF80B483B07F
:101A400000AF78600B46FB70FB78002B06D07B68FC
:101A50009B6843F400727B689A6005E07B689B6832
:101A600023F400727B689A6007F10C07BD4680BCC6
:101A7000704700BF80B483B000AF03463960FB718C
:101A800097F90730002B10DA4FF46D43CEF20003C4
:101A9000FA7902F00F02A2F104013A68D2B24FEAD9
:101AA0000212D2B25B181A760DE04FF46143CEF207
:101AB000000397F907103A68D2B24FEA0212D2B285
:101AC0005B1883F8002307F10C07BD4680BC704704
:101AD00080B582B000AF78607A686FF07F439A4239
:101AE00002D94FF001031FE04EF21003CEF20003C3
:101AF0007A6822F07F4202F1FF325A604FF0FF30E5
:101B00004FF00F01FFF7B6FF4EF21003CEF20003C5
:101B10004FF000029A604EF21003CEF200034FF035
:101B200007021A604FF00003184607F10807BD4688
:101B300080BD00BF80B582B000AF40F6AC03C2F2FA
:101B400000031B6803F1010240F6AC03C2F200037C
:101B50001A6040F6B003C2F200031B68002B0BD0E2
:101B600040F6B003C2F200031B6803F1FF3240F6F7
:101B7000B003C2F200031A60AFF300804FF000031D
:101B8000FB7181E0FB7940F6B802C2F200024FEA35
:101B90008303D3185B68002B72D0FB7940F6B80240
:101BA000C2F200024FEA8303D3185B681B7B002B51
:101BB00066D0FB7940F6B802C2F200024FEA830316
:101BC000D3185B689B68002B5AD0FB7940F6B802AB
:101BD000C2F200024FEA8303D3185B689A6802F1ED
:101BE000FF329A60FB7940F6B802C2F200024FEA77
:101BF0008303D3185B689B68002B41D1FB7940F6C7
:101C0000B802C2F200024FEA8303D3185B68196975
:101C1000FB7940F6B802C2F200024FEA8303D31800
:101C20005B685B6918468847FB7940F6B802C2F2E8
:101C300000024FEA8303D3185968FB7940F6B802D3
:101C4000C2F200024FEA8303D3185B681B688B6003
:101C5000FB7940F6B802C2F200024FEA8303D318C0
:101C60005B685B68002B0BD1FB7940F6B802C2F2CF
:101C700000024FEA8303D3185B684FF000021A7327
:101C8000FB7903F10103FB7140F6B803C2F20003D4
:101C90001B78FA799A42FFF475AF07F10807BD4641
:101CA00080BD00BF80B500AF40F21003C2F2000358
:101CB0001A6844F6D353C1F26203A3FB02134FEA3E
:101CC00093131846FFF704FF0346002B00D0FEE7EE
:101CD00040F21003C2F200031B684FEA931249F26C
:101CE0001713C0F26523A3FB02134FEA932240F6B9
:101CF0009C13C2F200031A6040F6B403C2F2000360
:101D00004FF001021A7080BD80B485B000AF7860DA
:101D100040F69C13C2F200031A687B6802FB03F3CF
:101D2000FB6040F21003C2F200031A684FF415433F
:101D3000C0F6BA239A420AD040F21003C2F200035E
:101D40001A684FF46143C0F2F5539A4207D140F646
:101D50009C13C2F200031B68FA68D31AFB6000BF31
:101D6000FB68002B0CBF00230123DBB2FA6802F1F1
:101D7000FF32FA60002BF3D107F11407BD4680BC97
:101D8000704700BF80B582B000AF4FF008004FF041
:101D90000101FFF7FFFB4FF0E0033B604FF0000352
:101DA000BB714FF001033B714FF003037B713B4666
:101DB0004FF44060C4F20200194600F0FFFE4FF4F9
:101DC0004060C4F202004FF0E00100F0C5FF07F1EF
:101DD0000807BD4680BD00BF80B58AB000AF4FF098
:101DE00008004FF00101FFF7D5FB4FF44060C4F24B
:101DF00002004FF00C014FF0020200F0BBFF4FF465
:101E00004060C4F202004FF00D014FF0020200F0FA
:101E1000B1FF4FF44060C4F202004FF00E014FF0EA
:101E2000020200F0A7FF4FF4E0433B624FF00003D3
:101E300087F826304FF0020387F824304FF0030371
:101E400087F8253007F120034FF44060C4F2020008
:101E5000194600F0B3FE4FF004004FF00101FFF708
:101E6000C3FB4FF00103BB824FF00003FB8242F241
:101E7000CF03BB614FF00003BB834FF00003BB7780
:101E800007F114034FF40060C4F20000194601F09A
:101E900009FD4FF40060C4F200004FF0010101F0B1
:101EA00095FD4FF070033B804FF001037B804FF0B6
:101EB0000203BB814FF00003BB603B464FF4006060
:101EC000C4F20000194601F0A1FD4FF40060C4F215
:101ED00000004FF0080101F03BFF4FF00003BB6032
:101EE0003B464FF40060C4F20000194601F00CFEBE
:101EF0004FF40060C4F200004FF0080101F044FF0D
:101F00004FF00003BB603B464FF40060C4F200009A
:101F1000194601F08DFE4FF40060C4F200004FF04E
:101F2000080101F051FF07F12807BD4680BD00BF41
:101F300080B586B000AF4FF002004FF00101FFF70F
:101F400029FB4FF48060C4F202004FF006014FF00D
:101F5000010200F00FFF4FF040033B614FF0000320
:101F6000BB754FF00003FB754FF002033B754FF05C
:101F700003037B7507F110034FF48060C4F2020085
:101F8000194600F01BFE4FF001004FF00101FFF772
:101F90002BFB44F29F13BB804FF00003FB804FF6F6
:101FA000FF73BB604FF00003BB814FF00003BB73B6
:101FB00007F104034FF08040194601F073FC4FF025
:101FC00080404FF0010101F001FD4FF080434FF0E0
:101FD0008042128C92B222F0030292B21A844FF025
:101FE00080434FF08042128B92B222F0030292B2F1
:101FF0001A834FF080434FF08042128B92B222F04E
:10200000700292B21A834FF0804341F288325A63D1
:102010004FF080434FF08042928992B242F0020228
:1020200092B29A814FF01C033B704FF005037B7016
:102030004FF00003BB704FF00103FB703B461846A6
:1020400001F0DCFA07F11807BD4680BD0000000072
:10205000B0B584B002AF4FF080435B6A4FF080436D
:102060004FF000025A624FF080404FF0020101F041
:10207000C7FE0346002B00F0E08040F64013C2F29A
:102080000003D3E900231046194671A3D3E90023C6
:1020900002F0CAF902460B46104619466EA3D3E970
:1020A000002302F097F802460B4614461D4640F600
:1020B0003013C2F20003D3E900231046194664A38B
:1020C000D3E9002302F0B0F902460B461046194648
:1020D00061A3D3E9002302F07DF802460B462046B7
:1020E000294601F0C3FE02460B46104619465CA382
:1020F000D3E9002302F06EF802460B46104619465B
:1021000040F66813C2F20003C3E9000140F6681309
:10211000C2F20003D3E900233946CDE90023084683
:102120004FF0060149F61432C0F6000202F0D0FD6D
:102130003B464FF000004FF000011A46FEF756F9FB
:1021400040F69013C2F200035B68184601F0CCFF22
:1021500002460B461046194643A3D3E9002302F07A
:1021600039F802460B461046194640F66813C2F28B
:102170000003C3E9000140F66813C2F20003D3E98B
:1021800000233946CDE9002308464FF0060149F601
:102190001432C0F6000202F09BFD3B464FF00000F7
:1021A0004FF001011A46FEF721F940F69013C2F2F2
:1021B00000039B683A4610464FF0060149F6183274
:1021C000C0F6000202F084FD3B464FF008004FF0DD
:1021D00000011A46FEF70AF940F63A13C2F200036C
:1021E0001B889BB24FEA03124FF45463C0F20303FF
:1021F00093FBF2F3184601F087FF40F66813C2F232
:102200000003C3E9000140F66813C2F20003D3E9FA
:1022100000233946CDE9002308464FF0060149F670
:102220001432C0F6000202F053FD3B464FF00800A6
:102230004FF001011A46FEF7D9F84FF080404FF0F9
:10224000020101F0FDFD07F10807BD46B0BD00BF6A
:102250000000000000FEAF406666666666660A40E3
:1022600054CE6EE157633640C0D897FD555F823F2C
:1022700080B584B000AF4FF002004FF00101FFF7CE
:10228000B3F942F2CF03BB804FF00003FB804FF65F
:10229000FF73BB604FF00003BB814FF00003BB73C3
:1022A00007F104034FF48060C4F20000194601F006
:1022B000F9FA4FF48060C4F200004FF0010101F020
:1022C00085FB07F11007BD4680BD00BF80B586B015
:1022D00000AF4FF008004FF00101FFF75BF94FF43A
:1022E00080404FF00101FFF7A9F94FF000033B7563
:1022F0004FF007033B614FF00203FB754FF0000303
:102300007B7507F110034FF44060C4F202001946D8
:1023100000F054FC4FF003004FF00001FDF734FFD4
:102320004FF003004FF00101FDF72EFF4FF00300C7
:102330004FF00201FDF728FF4FF00703BB604FF09D
:102340000103BB734FF000033B734FF010037B732B
:1023500007F10803184601F079F84FF006033B71C6
:102360004FF001037B714FF00003BB714FF001038D
:10237000FB7107F10403184601F040F94FF0070321
:102380003B714FF001037B714FF00103BB714FF0C4
:102390000103FB7107F10403184601F02FF94FF018
:1023A00008033B714FF001037B714FF00203BB71D7
:1023B0004FF00103FB7107F10403184601F01EF909
:1023C00007F11807BD4680BD80B590B000AF4FF44F
:1023D00080004FF00101FFF7DDF807F10403184614
:1023E00000F0D2FF46F21040C4F2020000F052FEAC
:1023F0004FF000037B6042F24C03C4F20103BB6068
:1024000040F68813C2F20003FB604FF000033B610B
:102410004FF003037B614FF00003BB614FF4806317
:10242000FB614FF400633B624FF400537B624FF457
:102430008073BB624FF40033FB624FF000033B63D9
:102440004FF001037B634FF00003BB634FF00003C9
:10245000FB6307F1040346F21040C4F20200194680
:1024600000F03AFF46F21040C4F202004FF00101C2
:1024700000F0D0FF07F14007BD4680BD80B58CB0AD
:1024800000AF4FF001004FF00101FFF783F84FF06C
:102490000703BB624FF0000387F82F304FF00303B0
:1024A00087F82D304FF0030387F82C3007F128030D
:1024B0004FF00000C4F20200194600F07FFB4FF419
:1024C00080704FF00101FFF7B9F807F110031846CB
:1024D000FFF73AF94FF000037B754FF001033B75AE
:1024E0004FF0030387F8243007F110034FF4005036
:1024F000C4F201001946FFF7CBF84FF000037B60F0
:102500004FF000033B604FF00003BB604FF000034F
:10251000FB603B461846FFF73DF94FF40050C4F20C
:1025200001004FF000014FF001024FF00103FFF7EF
:102530007BF94FF40050C4F201004FF001014FF05D
:1025400002024FF00103FFF76FF94FF40050C4F29D
:1025500001004FF002014FF003024FF00103FFF7BB
:1025600063F94FF40050C4F201004FF00101FFF78E
:1025700065FA4FF40050C4F201004FF00101FFF77B
:1025800041FA4FF40050C4F201004FF00101FFF78F
:102590002FF94FF40050C4F20100FFF723FA07F1BE
:1025A0003007BD4680BD00BF80B588B000AF4FF09A
:1025B00004004FF00101FEF7EDFF4FF40060C4F29C
:1025C00002004FF006014FF0080200F0D3FB4FF479
:1025D0000060C4F202004FF007014FF0080200F063
:1025E000C9FB4FF0C003BB614FF002033B774FF0D4
:1025F0000003BB774FF00103FB774FF003037B77BA
:1026000007F118034FF40060C4F20200194600F00D
:10261000D5FA4FF020004FF00101FFF70FF84FF40B
:102620001653BB604FF00003BB824FF00C037B825C
:102630004FF000033B824FF40053FB814FF0000347
:10264000BB8107F108034FF4A050C4F20100194602
:10265000FEF7F6F84FF4A050C4F201004FF001016C
:10266000FEF7C4F94FF4A050C4F2010040F2255126
:102670004FF00102FEF7ECF94FF047033B714FF0CA
:102680000103FB714FF000037B714FF00003BB713E
:1026900007F10403184600F0B1FF07F12007BD461B
:1026A00080BD00BF80B500AF4FF4A050C4F2010060
:1026B00040F22551FEF71EFA0346012B0CD14FF4D0
:1026C000A050C4F20100FEF7B1F90346DAB240F6B9
:1026D0006013C2F200031A7080BD00BF80B582B0E3
:1026E00000AF4FF09600FFF70FFB4FF44060C4F2CD
:1026F00002004FF0010100F003FB0346FB714FF4B1
:102700004060C4F202004FF0020100F0F9FA034603
:10271000BB714FF44060C4F202004FF0040100F0BE
:10272000EFFA03467B717B794FEA8303DAB2BB7918
:102730004FEA4303DBB21343DAB2FB791343DBB254
:102740003B713B79072B31D801A252F823F000BF2F
:10275000AD270008712700087B270008852700089F
:102760008F27000899270008A3270008AD27000835
:102770004FF0010000F01EF818E04FF0030000F0E9
:1027800019F813E04FF0020000F014F80EE04FF0DB
:10279000050000F00FF809E04FF0060000F00AF81D
:1027A00004E04FF0040000F005F800BF07F108074F
:1027B000BD4680BD80B582B000AF0346FB71FB799A
:1027C00003F1FF33052B00F2838101A252F823F0BD
:1027D000E927000865280008E12800085D290008AD
:1027E000D9290008552A00084FF44060C4F20200BD
:1027F0004FF0A00100F0B0FA4FF40063C4F2000300
:102800004FF000025A6340F65213C2F200034FF039
:1028100000021A804FF40063C4F200034FF000027C
:102820009A6340F65413C2F200034FF000021A807C
:102830004FF44060C4F202004FF0400100F07EFA15
:102840004FF40063C4F2000340F67A12C2F20002B1
:102850001288DA6340F67C13C2F200034FF6FF726F
:102860001A8035E14FF44060C4F202004FF0A0013D
:1028700000F072FA4FF40063C4F200034FF000025C
:102880009A6340F65413C2F200034FF000021A801C
:102890004FF40063C4F200034FF00002DA6340F625
:1028A0007C13C2F200034FF000021A804FF4406024
:1028B000C4F202004FF0400100F040FA4FF4006310
:1028C000C4F2000340F67A12C2F2000212885A6380
:1028D00040F65213C2F200034FF6FF721A80F7E07F
:1028E0004FF44060C4F202004FF0600100F034FA8F
:1028F0004FF40063C4F200034FF000029A6340F605
:102900005413C2F200034FF000021A804FF4006328
:10291000C4F200034FF00002DA6340F67C13C2F207
:1029200000034FF000021A804FF44060C4F202002E
:102930004FF0800100F002FA4FF40063C4F200038C
:1029400040F67A12C2F2000212885A6340F652131D
:10295000C2F200034FF6FF721A80B9E04FF44060F4
:10296000C4F202004FF0600100F0F6F94FF400638A
:10297000C4F200034FF000025A6340F65213C2F251
:1029800000034FF000021A804FF40063C4F200030A
:102990004FF00002DA6340F67C13C2F200034FF0FE
:1029A00000021A804FF44060C4F202004FF0800130
:1029B00000F0C4F94FF40063C4F2000340F67A1249
:1029C000C2F2000212889A6340F65413C2F2000366
:1029D0004FF6FF721A807BE04FF44060C4F20200B1
:1029E0004FF0C00100F0B8F94FF40063C4F20003E7
:1029F0004FF000025A6340F65213C2F200034FF048
:102A000000021A804FF40063C4F200034FF000028A
:102A1000DA6340F67C13C2F200034FF000021A8022
:102A20004FF44060C4F202004FF0200100F086F93C
:102A30004FF40063C4F2000340F67A12C2F20002BF
:102A400012889A6340F65413C2F200034FF6FF72E5
:102A50001A803DE04FF44060C4F202004FF0C00124
:102A600000F07AF94FF40063C4F200034FF0000263
:102A70005A6340F65213C2F200034FF000021A806C
:102A80004FF40063C4F200034FF000029A6340F673
:102A90005413C2F200034FF000021A804FF440605A
:102AA000C4F202004FF0200100F048F94FF4006337
:102AB000C4F2000340F67A12C2F200021288DA630E
:102AC00040F67C13C2F200034FF6FF721A8000BF7B
:102AD00007F10807BD4680BD80B500AF4FF001008B
:102AE00000F050FD0346002B1AD04FF48060C4F272
:102AF000000000F05FFF03469AB240F63A13C2F2BC
:102B000000031A804FF48060C4F200004FF000010F
:102B100000F042FFFFF7E2FD4FF0010000F05EFD24
:102B200080BD00BF80B500AF4FF0020000F02AFD6D
:102B30000346002B1AD04FF48060C4F2000000F06E
:102B400039FF03469AB240F63A13C2F200031A80E4
:102B50004FF48060C4F200004FF0000100F01CFF51
:102B6000FFF7BCFD4FF0020000F038FD80BD00BF54
:102B700080B500AF4FF0040000F004FD0346002BC9
:102B80001AD04FF48060C4F2000000F013FF034637
:102B90009AB240F63A13C2F200031A804FF48060F2
:102BA000C4F200004FF0000100F0F6FEFFF796FDC2
:102BB0004FF0040000F012FD80BD00BF80B487B06C
:102BC00000AF786039604FF000037B614FF0000385
:102BD0003B614FF00003FB604FF000037B6186E038
:102BE0007B694FF0010202FA03F33B613B681A680C
:102BF0003B691340FB60FA683B699A4273D17B687A
:102C00001A687B694FEA43034FF0030101FA03F3AB
:102C10006FEA03031A407B681A607B681A683B6896
:102C20001B7919467B694FEA430301FA03F31A4300
:102C30007B681A603B681B79012B03D03B681B79CA
:102C4000022B34D17B689A687B694FEA43034FF0CB
:102C5000030101FA03F36FEA03031A407B689A60E9
:102C60007B689A683B685B7919467B694FEA430346
:102C700001FA03F31A437B689A607B685A687B69A0
:102C80009BB24FF0010101FA03F36FEA03031A400C
:102C90007B685A607B685A683B689B7919467B69F8
:102CA0009BB201FA03F39BB21A437B685A607B68BC
:102CB000DA687B699BB24FEA43034FF0030101FAE4
:102CC00003F36FEA03031A407B68DA607B68DA6813
:102CD0003B68DB7919467B694FEA430301FA03F34A
:102CE0001A437B68DA607B6903F101037B617B69CE
:102CF0000F2B7FF675AF07F11C07BD4680BC7047F0
:102D000080B485B000AF78600B467B804FF0000345
:102D1000FB737B681A697B881340002B03D04FF04C
:102D20000103FB7302E04FF00003FB73FB7B1846CB
:102D300007F11407BD4680BC704700BF80B483B064
:102D400000AF78600B467B807B687A881A8307F136
:102D50000C07BD4680BC704780B483B000AF78607C
:102D60000B467B807B687A885A8307F10C07BD4647
:102D700080BC704780B485B000AF786013460A46C7
:102D80007A807B704FF00003FB604FF00003BB6064
:102D90007A787B8803F007034FEA830302FA03F390
:102DA000FB607B884FEAD3039BB21A467B884FEACD
:102DB000D3039BB219467B6801F1080153F8211037
:102DC0007B8803F007034FEA83034FF00F0000FAFC
:102DD00003F36FEA030319407B6802F1080243F82A
:102DE00022107B884FEAD3039BB21A467B6802F11C
:102DF000080253F82220FB681343BB607B884FEA2C
:102E0000D3039BB21A467B6802F10802B96843F803
:102E1000221007F11407BD4680BC704780B500AF93
:102E20004FF46053C4F202034FF46052C4F2020242
:102E3000126842F001021A604FF46053C4F20203B8
:102E40004FF000029A604FF46053C4F202034FF453
:102E50006052C4F20202126822F0847222F48032BC
:102E60001A604FF46053C4F2020343F21002C2F23C
:102E700000425A604FF46053C4F202034FF46052B0
:102E8000C4F20202126822F480221A604FF46053E6
:102E9000C4F202034FF00002DA6000F009F84FF4C8
:102EA0006D43CEF200034FF000629A6080BD00BF18
:102EB00080B483B000AF4FF000037B604FF000039D
:102EC0003B604FF46053C4F202034FF46052C4F20B
:102ED0000202126842F480321A604FF46053C4F266
:102EE00002031B6803F400333B607B6803F10103BA
:102EF0007B603B68002B03D17B68B3F5A06FECD1FE
:102F00004FF46053C4F202031B6803F40033002B38
:102F100003D04FF001033B6002E04FF000033B6041
:102F20003B68012B40F082804FF46053C4F20203EF
:102F30004FF46052C4F20202126C42F080521A64E2
:102F40004FF4E043C4F200034FF4E042C4F2000245
:102F5000126842F480421A604FF46053C4F20203D4
:102F60004FF46052C4F2020292689A604FF46053C8
:102F7000C4F202034FF46052C4F20202926842F4B7
:102F800000429A604FF46053C4F202034FF460525F
:102F9000C4F20202926842F4A0529A604FF4605365
:102FA000C4F2020345F20842C0F640025A604FF4F0
:102FB0006053C4F202034FF46052C4F2020212687A
:102FC00042F080721A6000BF4FF46053C4F20203F3
:102FD0001B6803F00073002BF6D04FF47053C4F25B
:102FE000020340F205621A604FF46053C4F2020318
:102FF0004FF46052C4F20202926822F003029A6017
:103000004FF46053C4F202034FF46052C4F2020260
:10301000926842F002029A6000BF4FF46053C4F21B
:1030200002039B6803F00C03082BF6D107F10C0791
:10303000BD4680BC704700BF80B485B000AF7860EB
:1030400040F6D003C2F200031B68002B08D140F603
:10305000D003C2F2000341F2A812C2F200021A60C9
:1030600040F6D003C2F200031B68FB6040F6D003B9
:10307000C2F200031A687B68D21840F6D003C2F28D
:1030800000031A60FB68184607F11407BD4680BCB0
:10309000704700BF80B483B000AF78607B681B6866
:1030A00023F001027B681A607B684FF000021A600F
:1030B0007B684FF000025A607B684FF000029A6014
:1030C0007B684FF00002DA607B684FF000021A6103
:1030D0007B684FF021025A617A6846F21003C4F20D
:1030E00002039A4207D14FF4C043C4F202034FF0E7
:1030F0003D029A60EBE07A6846F22803C4F20203CC
:103100009A4207D14FF4C043C4F202034FF47462F1
:103110009A60DCE07A6846F24003C4F202039A4205
:1031200007D14FF4C043C4F202034FF474129A6003
:10313000CDE07A6846F25803C4F202039A4207D1FE
:103140004FF4C043C4F202034FF074629A60BEE0D1
:103150007A6846F27003C4F202039A4209D14FF42E
:10316000C043C4F202034FF03D02C2F20002DA6033
:10317000ADE07A6846F28803C4F202039A4209D1AC
:103180004FF4C043C4F202034FF47462C2F200026F
:10319000DA609CE07A6846F2A003C4F202039A4225
:1031A00009D14FF4C043C4F202034FF00002C2F24F
:1031B0003D02DA608BE07A6846F2B803C4F202039B
:1031C0009A4207D14FF4C043C4F202034FF03D527C
:1031D000DA607CE07A6846F21043C4F202039A4255
:1031E00007D14FF4C843C4F202034FF03D029A6086
:1031F0006DE07A6846F22843C4F202039A4207D18E
:103200004FF4C843C4F202034FF474629A605EE064
:103210007A6846F24043C4F202039A4207D14FF45F
:10322000C843C4F202034FF474129A604FE07A6804
:1032300046F25843C4F202039A4207D14FF4C843FE
:10324000C4F202034FF074629A6040E07A6846F27A
:103250007043C4F202039A4209D14FF4C843C4F246
:1032600002034FF03D02C2F20002DA602FE07A68FA
:1032700046F28843C4F202039A4209D14FF4C8438C
:10328000C4F202034FF47462C2F20002DA601EE07C
:103290007A6846F2A043C4F202039A4209D14FF47D
:1032A000C843C4F202034FF00002C2F23D02DA60EA
:1032B0000DE07A6846F2B843C4F202039A4206D19E
:1032C0004FF4C843C4F202034FF03D52DA6007F1F5
:1032D0000C07BD4680BC704780B485B000AF7860F5
:1032E00039604FF00003FB607B681B68FB60FA6885
:1032F00048F23F03CFF21C031340FB603B681A689F
:103300003B68DB681A433B685B691A433B689B690F
:103310001A433B68DB691A433B681B6A1A433B68E4
:103320005B6A1A433B689B6A1A433B685B6B1A43B0
:103330003B689B6B1343FA681343FB607B68FA6836
:103340001A607B685B69FB60FB6823F00703FB6026
:103350003B68DA6A3B681B6B1343FA681343FB60F4
:103360007B68FA685A613B681A697B685A603B68F7
:103370005A687B689A603B689A687B68DA6007F1F4
:103380001407BD4680BC704780B483B000AF78603E
:103390007B684FF000021A607B684FF000025A60B1
:1033A0007B684FF000029A607B684FF00002DA60A1
:1033B0007B684FF000021A617B684FF000025A618F
:1033C0007B684FF000029A617B684FF00002DA617F
:1033D0007B684FF000021A627B684FF000025A626D
:1033E0007B684FF000029A627B684FF00002DA625D
:1033F0007B684FF000021A637B684FF000025A634B
:103400007B684FF000029A6307F10C07BD4680BC51
:10341000704700BF80B483B000AF78600B46FB708C
:10342000FB78002B06D07B681B6843F001027B68A9
:103430001A6005E07B681B6823F001027B681A6054
:1034400007F10C07BD4680BC704700BF80B485B053
:1034500000AF78604FF00003FB604FF47053C4F28C
:103460000103FB607B689B79002B78D04FF470538D
:10347000C4F201034FF47052C4F2010211687A6879
:1034800012686FEA02020A401A604FF47053C4F2E5
:1034900001034FF47052C4F2010251687A68126855
:1034A0006FEA02020A405A607B681B79FA68D318F7
:1034B000FB60FB68FA6811687A6812680A431A6050
:1034C0004FF47053C4F201034FF47052C4F201027E
:1034D00091687A6812686FEA02020A409A604FF4B3
:1034E0007053C4F201034FF47052C4F20102D16868
:1034F0007A6812686FEA02020A40DA607B685B79D8
:10350000102B1AD14FF47053C4F201034FF47052D0
:10351000C4F2010291687A6812680A439A604FF413
:103520007053C4F201034FF47052C4F20102D16827
:103530007A6812680A43DA601FE04FF47053C4F2ED
:103540000103FB607B685B79FA68D318FB60FB685A
:10355000FA6811687A6812680A431A600DE07B689D
:103560001B79FA68D318FB60FB68FA6811687A68FF
:1035700012686FEA02020A401A6007F11407BD469A
:1035800080BC704780B485B000AF78604FF0000316
:10359000FB734FF00003BB604FF47053C4F20103A0
:1035A0001A687B681340BB604FF47053C4F2010388
:1035B0005A697B681340002B06D0BB68002B03D0F0
:1035C0004FF00103FB7302E04FF00003FB73FB7B42
:1035D000184607F11407BD4680BC704780B483B01D
:1035E00000AF78604FF47053C4F201037A685A61F7
:1035F00007F10C07BD4680BC704700BF80B485B0A2
:1036000000AF78604FF00003FB734FF00003BB7313
:103610004FF00F037B737B68DB78002B45D04FF4B2
:103620006D43CEF20003DB686FEA030303F4E0634B
:103630004FEA1323FB73FB7BC3F10403BB737A7B59
:10364000FB7B42FA03F37B737B685B781A46BB7B98
:1036500002FA03F3FB737B689A787B7B1340DAB240
:10366000FB7B1343FB73FB7B4FEA0313FB734FF4AA
:103670006143CEF200037A6812789B18FA7B83F8D4
:1036800000234FF46143CEF200037A6812784FEAC8
:103690005212D2B27968097801F01F014FF001008F
:1036A00000FA01F143F8221014E04FF46143CEF226
:1036B00000037A6812784FEA5212D2B27968097818
:1036C00001F01F014FF0010000FA01F102F12002A8
:1036D00043F8221007F11407BD4680BC704700BFB5
:1036E00080B584B002AF786079807A703B707B8857
:1036F000002B0DD0786800F023F879887A783B7831
:10370000387C0090387D0190786800F035F800E052
:1037100000BF07F10807BD4680BD00BF80B483B07D
:1037200000AF78607B6803F13F4303F57E034FEA07
:1037300093239BB2184607F10C07BD4680BC704727
:10374000B0B582B000AF78604FF46054C4F20204A8
:103750004FF46053C4F202031D6B7868FFF7DEFF7D
:1037600003464FF0010202FA03F32B43236307F1F0
:103770000807BD46B0BD00BF80B584B000AF78601B
:1037800079807A703B707868FFF7C8FF0346BB7397
:103790004FF00003FB737DE07A88FB7B42FA03F372
:1037A00003F00103002B70D0BA7BB97B40F6D40341
:1037B000C2F2000333F8113099B2FB7B4FF00100E5
:1037C00000FA03F39BB20B439BB299B240F6D403C9
:1037D000C2F2000323F812107B68DA68FB7B4FEA21
:1037E00043034FF0030101FA03F36FEA03031A40A6
:1037F000397EFB7B4FEA430301FA03F31A437B68EC
:10380000DA607B681A68FB7B4FEA43034FF00301E1
:1038100001FA03F36FEA03031A407978FB7B4FEA5E
:10382000430301FA03F31A437B681A607B78012B88
:1038300002D07B78022B29D17B685A68FB7B4FF042
:10384000010101FA03F39BB26FEA03031A403978CE
:10385000FB7B01FA03F39BB21A437B685A607B68D7
:103860009A68FB7B4FEA43034FF0030101FA03F32D
:103870006FEA03031A40397FFB7B4FEA430301FAE7
:1038800003F31A437B689A6000E000BFFB7B03F1FF
:103890000103FB73FB7B0F2B7FF67EAF07F1100755
:1038A000BD4680BD80B485B000AF786039604FF010
:1038B0000003FB817B681B88FB817A684FF0000363
:1038C000C4F201039A421FD07A684FF48063C4F2B5
:1038D00001039A4218D07B68B3F1804F14D07A6804
:1038E0004FF48063C4F200039A420DD07A684FF41B
:1038F0000063C4F200039A4206D07A684FF4406332
:10390000C4F200039A4208D1FB8923F07003FB81C3
:103910003B685A88FB891343FB817A684FF48053D4
:10392000C4F200039A420FD07A684FF4A053C4F255
:1039300000039A4208D0FB8923F44073FB813B6863
:103940001A89FB891343FB817B68FA891A803B68DB
:103950005A687B68DA623B681A887B681A857A68DD
:103960004FF00003C4F201039A4206D07A684FF484
:103970008063C4F201039A4204D13B689B7A1A46E1
:103980007B681A867B684FF001029A8207F1140760
:10399000BD4680BC704700BF80B483B000AF786084
:1039A00039607B683A685A6207F10C07BD4680BCF3
:1039B000704700BF80B483B000AF78607B685B6AFB
:1039C000184607F10C07BD4680BC704780B483B031
:1039D00000AF78600B46FB70FB78002B08D07B684B
:1039E0001B889BB243F001039AB27B681A8007E000
:1039F0007B681B889BB223F001039AB27B681A8014
:103A000007F10C07BD4680BC704700BF80B485B08D
:103A100000AF786039604FF000037B814FF0000306
:103A2000FB814FF00003BB817B681B8C9BB223F0B2
:103A300001039AB27B681A847B681B8CFB817B68CC
:103A40009B88BB817B681B8B7B817B8923F0700308
:103A50007B817B8923F003037B813B681A887B8908
:103A600013437B81FB8923F00203FB813B689A8926
:103A7000FB891343FB813B685A88FB891343FB8115
:103A80007A684FF00003C4F201039A4206D07A68C4
:103A90004FF48063C4F201039A4223D1FB8923F0DF
:103AA0000803FB813B68DA89FB891343FB81FB89AF
:103AB00023F00403FB813B689A88FB891343FB8155
:103AC000BB8923F48073BB81BB8923F40073BB8162
:103AD0003B681A8ABB891343BB813B685A8ABB89FE
:103AE0001343BB817B68BA899A807B687A891A8381
:103AF0003B689A687B685A637B68FA891A8407F185
:103B00001407BD4680BC704780B485B000AF7860B4
:103B100039604FF000037B814FF00003FB814FF0D1
:103B20000003BB817B681B8C9BB223F010039AB20D
:103B30007B681A847B681B8CFB817B689B88BB81BC
:103B40007B681B8B7B817B8923F4E0437B817B89B2
:103B500023F440737B813B681B884FEA03239AB2AE
:103B60007B8913437B81FB8923F02003FB813B6826
:103B70009B894FEA03139AB2FB891343FB813B688D
:103B80005B884FEA03139AB2FB891343FB817A687F
:103B90004FF00003C4F201039A4206D07A684FF452
:103BA0008063C4F201039A422FD1FB8923F0800382
:103BB000FB813B68DB894FEA03139AB2FB8913430D
:103BC000FB81FB8923F04003FB813B689B884FEA24
:103BD00003139AB2FB891343FB81BB8923F48063EF
:103BE000BB81BB8923F40063BB813B681B8A4FEA1E
:103BF00083039AB2BB891343BB813B685B8A4FEA5C
:103C000083039AB2BB891343BB817B68BA899A80CC
:103C10007B687A891A833B689A687B689A637B68B9
:103C2000FA891A8407F11407BD4680BC704700BFAB
:103C300080B485B000AF786039604FF000037B81BD
:103C40004FF00003FB814FF00003BB817B681B8CAE
:103C50009BB223F480739AB27B681A847B681B8CB6
:103C6000FB817B689B88BB817B689B8B7B817B898D
:103C700023F070037B817B8923F003037B813B6806
:103C80001A887B8913437B81FB8923F40073FB81B2
:103C90003B689B894FEA03239AB2FB891343FB815C
:103CA0003B685B884FEA03239AB2FB891343FB818D
:103CB0007A684FF00003C4F201039A4206D07A6892
:103CC0004FF48063C4F201039A422FD1FB8923F49D
:103CD0000063FB813B68DB894FEA03239AB2FB89CF
:103CE0001343FB81FB8923F48063FB813B689B8842
:103CF0004FEA03239AB2FB891343FB81BB8923F468
:103D00008053BB81BB8923F40053BB813B681B8A72
:103D10004FEA03139AB2BB891343BB813B685B8AAA
:103D20004FEA03139AB2BB891343BB817B68BA89FC
:103D30009A807B687A899A833B689A687B68DA63A1
:103D40007B68FA891A8407F11407BD4680BC704766
:103D500080B485B000AF78600B467B804FF00003E5
:103D6000FB817B681B8BFB81FB8923F00803FB81B4
:103D7000FA897B881343FB817B68FA891A8307F1F0
:103D80001407BD4680BC704780B485B000AF786032
:103D90000B467B804FF00003FB817B681B8BFB8114
:103DA000FB8923F40063FB817B884FEA03239AB2EB
:103DB000FB891343FB817B68FA891A8307F1140797
:103DC000BD4680BC704700BF80B485B000AF78604E
:103DD0000B467B804FF00003FB817B689B8BFB8154
:103DE000FB8923F00803FB81FA897B881343FB815D
:103DF0007B68FA899A8307F11407BD4680BC704737
:103E000080B485B000AF78600B467B804FF0000334
:103E1000FB737B681B8A9AB27B8813409BB2002B92
:103E200003D04FF00103FB7302E04FF00003FB737C
:103E3000FB7B184607F11407BD4680BC704700BFE6
:103E400080B483B000AF78600B467B807B886FEADC
:103E500003039AB27B681A8207F10C07BD4680BC47
:103E6000704700BF81F0004102E000BF83F00043D3
:103E700030B54FEA41044FEA430594EA050F08BF05
:103E800090EA020F1FBF54EA000C55EA020C7FEAC9
:103E9000645C7FEA655C00F0E2804FEA5454D4EB46
:103EA0005555B8BF6D420CDD2C4480EA020281EA10
:103EB000030382EA000083EA010180EA020281EA48
:103EC0000303362D88BF30BD11F0004F4FEA01319A
:103ED0004FF4801C4CEA113102D0404261EB4101A9
:103EE00013F0004F4FEA03334CEA133302D052422F
:103EF00063EB430394EA050F00F0A780A4F10104EB
:103F0000D5F1200E0DDB02FA0EFC22FA05F2801824
:103F100041F1000103FA0EF2801843FA05F359410A
:103F20000EE0A5F120050EF1200E012A03FA0EFC89
:103F300028BF4CF0020C43FA05F3C01851EBE371B3
:103F400001F0004507D54FF0000EDCF1000C7EEBD0
:103F500000006EEB0101B1F5801F1BD3B1F5001F0E
:103F60000CD349085FEA30004FEA3C0C04F101042D
:103F70004FEA445212F5800F80F09A80BCF1004F56
:103F800008BF5FEA500C50F1000041EB045141EAD8
:103F9000050130BD5FEA4C0C404141EB010111F4D9
:103FA000801FA4F10104E9D191F0000F04BF014684
:103FB0000020B1FA81F308BF2033A3F10B03B3F162
:103FC00020020CDA0C3208DD02F1140CC2F10C02F2
:103FD00001FA0CF021FA02F10CE002F11402D8BF50
:103FE000C2F1200C01FA02F120FA0CFCDCBF41EA1C
:103FF0000C019040E41AA2BF01EB0451294330BDEB
:104000006FEA04041F3C1CDA0C340EDC04F11404C7
:10401000C4F1200220FA04F001FA02F340EA03009E
:1040200021FA04F345EA030130BDC4F10C04C4F1E4
:10403000200220FA02F001FA04F340EA03002946C4
:1040400030BD21FA04F0294630BD94F0000F83F40E
:10405000801306BF81F480110134013D4EE77FEAF1
:10406000645C18BF7FEA655C29D094EA050F08BF3D
:1040700090EA020F05D054EA000C04BF194610461E
:1040800030BD91EA030F1EBF0021002030BD5FEA62
:10409000545C05D14000494128BF41F0004130BD8A
:1040A00014F580043CBF01F5801130BD01F00045DE
:1040B00045F0FE4141F470014FF0000030BD7FEA51
:1040C000645C1ABF194610467FEA655C1CBF0B464C
:1040D000024650EA013406BF52EA033591EA030F63
:1040E00041F4002130BD00BF90F0000F04BF00215B
:1040F000704730B54FF4806404F132044FF000058E
:104100004FF0000150E700BF90F0000F04BF002106
:10411000704730B54FF4806404F1320410F000456C
:1041200048BF40424FF000013EE700BF42004FEA67
:10413000E2014FEA31014FEA02701FBF12F07F43E4
:1041400093F07F4F81F06051704792F0000F14BFE1
:1041500093F07F4F704730B54FF4607401F0004525
:1041600021F0004120E700BF50EA010208BF70477C
:1041700030B54FF000050AE050EA010208BF704771
:1041800030B511F0004502D5404261EB41014FF4DA
:10419000806404F132045FEA915C3FF4DCAE4FF0DE
:1041A00003025FEADC0C18BF03325FEADC0C18BFC5
:1041B000033202EBDC02C2F1200300FA03FC20FA16
:1041C00002F001FA03FE40EA0E0021FA02F1144463
:1041D000C1E600BF70B54FF0FF0C4CF4E06C1CEA78
:1041E00011541DBF1CEA135594EA0C0F95EA0C0FED
:1041F00000F0DEF82C4481EA030621EA4C5123EA60
:104200004C5350EA013518BF52EA033541F480118E
:1042100043F4801338D0A0FB02CE4FF00005E1FB41
:1042200002E506F00042E0FB03E54FF00006E1FB8B
:1042300003569CF0000F18BF4EF0010EA4F1FF04CE
:10424000B6F5007F64F5407404D25FEA4E0E6D410E
:1042500046EB060642EAC62141EA55514FEAC5201F
:1042600040EA5E504FEACE2EB4F1FD0C88BFBCF59B
:10427000E06F1ED8BEF1004F08BF5FEA500E50F14C
:10428000000041EB045170BD06F0004646EA010112
:1042900040EA020081EA0301B4EB5C04C2BFD4EB44
:1042A0000C0541EA045170BD41F480114FF0000E3D
:1042B000013C00F3AB8014F1360FDEBF002001F0AB
:1042C000004170BDC4F10004203C35DA0C341BDC25
:1042D00004F11404C4F1200500FA05F320FA04F0F7
:1042E00001FA05F240EA020001F0004221F000412B
:1042F00010EBD37021FA04F642EB06015EEA430E9E
:1043000008BF20EAD37070BDC4F10C04C4F12005CD
:1043100000FA04F320FA05F001FA04F240EA020080
:1043200001F0004110EBD37041F100015EEA430E51
:1043300008BF20EAD37070BDC4F1200500FA05F271
:104340004EEA020E20FA04F301FA05F243EA0203F0
:1043500021FA04F001F0004121FA04F220EA0200FF
:1043600000EBD3705EEA430E08BF20EAD37070BD45
:1043700094F0000F0FD101F00046400041EB010125
:1043800011F4801F08BF013CF7D041EA060195F007
:10439000000F18BF704703F00046520043EB0303C1
:1043A00013F4801F08BF013DF7D043EA06037047AE
:1043B00094EA0C0F0CEA135518BF95EA0C0F0CD0B9
:1043C00050EA410618BF52EA4306D1D181EA0301FF
:1043D00001F000414FF0000070BD50EA410606BFF9
:1043E0001046194652EA430619D094EA0C0F02D13E
:1043F00050EA013613D195EA0C0F05D152EA033683
:104400001CBF104619460AD181EA030101F00041A0
:1044100041F0FE4141F470014FF0000070BD41F0E9
:10442000FE4141F4780170BD70B54FF0FF0C4CF4C3
:10443000E06C1CEA11541DBF1CEA135594EA0C0FE2
:1044400095EA0C0F00F0A7F8A4EB050481EA030E2F
:1044500052EA03354FEA013100F088804FEA033316
:104460004FF0805545EA131343EA12634FEA0222E4
:1044700045EA111545EA10654FEA00260EF00041A5
:104480009D4208BF964244F1FD0404F5407402D2F7
:104490005B084FEA3202B61A65EB03055B084FEA88
:1044A00032024FF480104FF4002CB6EB020E75EB85
:1044B000030E22BFB61A754640EA0C005B084FEAAD
:1044C0003202B6EB020E75EB030E22BFB61A75462A
:1044D00040EA5C005B084FEA3202B6EB020E75EB75
:1044E000030E22BFB61A754640EA9C005B084FEAED
:1044F0003202B6EB020E75EB030E22BFB61A7546FA
:1045000040EADC0055EA060E18D04FEA051545EAE8
:1045100016754FEA06164FEAC30343EA52734FEA91
:10452000C2025FEA1C1CC0D111F4801F0BD141EA0A
:1045300000014FF000004FF0004CB6E711F4801F6F
:1045400004BF01430020B4F1FD0C88BFBCF5E06F4F
:104550003FF6AFAEB5EB030C04BFB6EB020C5FEA5F
:10456000500C50F1000041EB045170BD0EF0004EB4
:104570004EEA113114EB5C04C2BFD4EB0C0541EAE6
:10458000045170BD41F480114FF0000E013C90E6E3
:1045900045EA060E8DE60CEA135594EA0C0F08BFA7
:1045A00095EA0C0F3FF43BAF94EA0C0F0AD150EAA6
:1045B00001347FF434AF95EA0C0F7FF425AF104639
:1045C00019462CE795EA0C0F06D152EA03353FF461
:1045D000FDAE1046194622E750EA410618BF52EADE
:1045E00043067FF4C5AE50EA41047FF40DAF52EAB2
:1045F00043057FF4EBAE12E74FF0FF3C06E000BF4F
:104600004FF0010C02E000BF4FF0010C4DF804CD5B
:104610004FEA410C7FEA6C5C4FEA430C18BF7FEA1B
:104620006C5C1BD001B050EA410C0CBF52EA430C49
:1046300091EA030F02BF90EA020F0020704710F1C9
:10464000000F91EA030F58BF994208BF90422CBF58
:10465000D8176FEAE37040F0010070474FEA410C51
:104660007FEA6C5C02D150EA013C07D14FEA430C6F
:104670007FEA6C5CD6D152EA033CD3D05DF8040BE0
:10468000704700BF8446104662468C461946634612
:1046900000E000BF01B5FFF7B7FF002848BF10F1E9
:1046A000000F01BD4DF808EDFFF7F4FF0CBF01202E
:1046B00000205DF808FB00BF4DF808EDFFF7EAFFAA
:1046C00034BF012000205DF808FB00BF4DF808ED65
:1046D000FFF7E0FF94BF012000205DF808FB00BF5A
:1046E0004DF808EDFFF7CEFF94BF012000205DF8E4
:1046F00008FB00BF4DF808EDFFF7C4FF34BF0120F1
:1047000000205DF808FB00BF4A0011D212F500122C
:1047100011D20DD56FF47873B3EB62520ED44FEA19
:10472000C12343F0004343EA505323FA02F0704799
:104730004FF00000704750EA013002D14FF0FF30D7
:1047400070474FF0000070472DE9F04F01F10B0565
:10475000162D83B0064627D935F0070527D4A94280
:1047600025D8304600F09EFAB5F5FC7F23D2BA4F2B
:104770004FEAD50C07EBCC02D468944200F0DE81FE
:104780006368E268A16823F003002318CA605868D0
:10479000916040F001025A60304600F085FA08341A
:1047A000204603B0BDE8F08F1025A942D9D90C24CA
:1047B00034600024F4E75FEA552C00F08B80BCF1F4
:1047C000040F00F255814FEA951707F1380E4FEAB2
:1047D0004E01A14F07EB8101CC68A14205D10CE04D
:1047E000002A7CDAE468A14207D0636823F0030062
:1047F000421B0F2AF4DD0EF1FF3E0EF1010C964B29
:104800003C6903F1080E744500F07581616821F080
:1048100003014A1B0F2A00F35B81002AC3F814E04E
:10482000C3F810E069DAB1F5007F80F02F81CA0883
:1048300003EBC2014FF00109921009FA02F95A681C
:104840008868E16049EA0209A060C3F804908C60BE
:10485000C46001204FEAAC0400FA04F0484556D881
:1048600019EA000F07D12CF0030C400019EA000FE1
:104870000CF1040CF9D007EBCC094C46E046E36898
:104880009C4207D13AE1002A80F26281DB689C42B7
:1048900000F03481596821F003014A1B0F2AF2DD30
:1048A0001C465919D86854F808CF8A5045F00105BC
:1048B00042F00102CCF80C00C0F808C05D607961DC
:1048C0003961C1F80CE0C1F808E04A60304600F0F8
:1048D000EBF965E74FEAD50E4FEA4E0179E722186A
:1048E000E3685068A16840F001005060CB609960B7
:1048F000304600F0D9F9083452E7611830464B6869
:1049000043F001024A6000F0CFF9083448E7BC6880
:10491000606820F00309A94504D3C5EB09030F2BF8
:1049200000F38D804D4A4E4B11681868013104EB3D
:10493000090B05EB000300F05A8103F580500F309E
:1049400020F47F6121F00F0C614630468DE80410A1
:1049500000F0ACF9B0F1FF3F80469DE8041000F094
:104960005281834500F20F81DFF800A1DAF80030B0
:10497000C3456344CAF8003000F04A81126801322E
:1049800000F05781CBEB080B5B44CAF8003018F0FD
:10499000070100F00B81C1F10800C1F5805380448C
:1049A00003F1080208EB0C010805030DC3EB020B31
:1049B0003046594600F07AF9431C00F04681C8EBB6
:1049C00000020BEB020141F00100DAF80030C7F8F9
:1049D00008805B44BC42CAF80030C8F8040015D017
:1049E000B9F10F0F40F2F2806168A9F10C0222F0D8
:1049F0000702A01801F0010C42EA0C0E05210F2A53
:104A0000C4F804E04160816000F21781154ABC6877
:104A10001068834288BF1360134A11688B4288BFB5
:104A20001360636823F00300A842C5EB000301D3C1
:104A30000F2B04DC304600F037F90024B0E6621991
:104A400043F0010145F00105656030465160BA60F0
:104A500000F02AF90834A3E62400002030040020E6
:104A6000F4080020F0080020EC080020F8080020DE
:104A7000BCF1140F7BD9BCF1540F00F28D804FEACA
:104A8000153404F16E0E4FEA4E01A2E6480A0428DE
:104A900072D9142800F2AE8000F15B094FEA490296
:104AA00007EB8200DFF8F0818368834200F08180A9
:104AB0005A6822F00302914202D29B689842F7D1D1
:104AC000DA68D7F80490E260A360DC609460C0E626
:104AD000611942F0010045F00105656059611961F5
:104AE0004860C1F80CE0C1F808E08A50304600F098
:104AF000DBF8083454E6D3F80490AAE608F101087C
:104B0000083418F0030F7FF4BAAE49461CF0030FC7
:104B1000A1F108040CF1FF3C00F0B0800968A1424B
:104B2000F4D07C684000A0423FF6F1AE00283FF48C
:104B3000EEAE044200F0A780C4469CE604F10803F0
:104B40006469A34208BF0CF1020C3FF458AE17E6AB
:104B500059181C464868DB6854F8082F40F00100DB
:104B60004860D3609A60304600F09EF818E60CF179
:104B70005B0E4FEA4E012CE64FEA911808F1380916
:104B80004FEA49028CE7BC423FF4EEAE424CA468C7
:104B9000626822F0030047E7BCF5AA7F1CD84FEA01
:104BA000D53202F1770E4FEA4E0112E64FF48052F1
:104BB000F8E6D8F804004FEAA902012101FA02F24E
:104BC00042EA0009C8F804901A467CE70122C8F8B6
:104BD00004204446002027E740F254539C4524D843
:104BE0004FEA954000F17C0E4FEA4E01F1E503F1EA
:104BF000100CA9E654282CD84FEA113202F16E09A4
:104C00004FEA49024CE7BC68616821F003000BE7FA
:104C10004FEA0B50010D00297FF4B0AEB8680CEBE1
:104C2000090141F001044460F0E6FC214FF07E0EE2
:104C3000CFE51A48C0F80080A9E604F10801184C35
:104C4000304603F0D5F82368E0E601204FF0000B72
:104C5000BBE6B0F5AA7F06D84FEAD13303F1770956
:104C60004FEA49021CE740F2545398420FD84FEAEA
:104C7000914000F17C094FEA490211E77C6824EA7F
:104C800000047C604EE7400008F1040851E7FC2274
:104C90004FF07E0904E700BF24000020300400200C
:104CA000F8080020704700BF704700BF38B5074CB8
:104CB0000023054608462360FEF7BEF9431C00D0DA
:104CC00038BD21680029FBD0296038BDA00900202B
:104CD0000CB4F0B5174B0C1E9DB01F6825DB4FF4CC
:104CE0000271ADF814100290069019D1264623AD3A
:104CF000229A04960796384602A92B464FF6FF766D
:104D0000ADF81660019500F017F8421C0ADB14B1EB
:104D1000029B002119701DB0BDE8F04002B0704741
:104D2000661EE4E78B223A60F1E78B2038604FF093
:104D3000FF30F0E7600800202DE9F04FC3B01446C3
:104D40000A9110930C9003F01DF90068139003F082
:104D5000A1FF15900A98838903F080010AB2002010
:104D60000021CDE9160122B10A980369002B01F058
:104D7000C482002032ABDFF8FC9411900793259396
:104D800027902690A246189019900F901E469AF8E8
:104D90000040002C00F09C81252C00F099810AF144
:104DA000010501E0252904D02C4601352178002990
:104DB000F8D1CAEB04057DB1269B279AC6F800A05E
:104DC000591C5019072975602790269100F36481BA
:104DD00008360F9A50190F902378002B00F0648149
:104DE00000224FF0FF3194F8018009910D9204F1F7
:104DF000010A8DF87320089220202B210AF1010A64
:104E0000A8F12003582B00F2B982DFE813F0FB0170
:104E1000B702B7020502B702B702B702B702B7027C
:104E2000B702B2014E02B7023E010C02B702C50240
:104E3000CC02CC02CC02CC02CC02CC02CC02CC0202
:104E4000CC02B702B702B702B702B702B702B70285
:104E5000B702B702B70284008001B7028001B7022F
:104E6000B702B702B7024702B702B7026D00B70236
:104E7000B702B702B702B7025900B702B702DD01A5
:104E8000B702B702B702B702B702B702B702B7025A
:104E9000B702B702350288008001800180018702D5
:104EA0008800B702B702AB02B702530271008E024C
:104EB000A402B7026102B7025D00B702B702BD01EA
:104EC000089D45F010040894089B9D0600F18F8111
:104ED0000899CC0641F19280109A1568171D2C464E
:104EE00010970025012312E0089A42F0100508955A
:104EF000089F17F0200340F0FF80089C14F010007A
:104F000001F06E80109F3A1D3C681092002500272A
:104F10008DF8737017E0089D45F010030893089F03
:104F2000BF0640F1D780109DEB1D23F00700D0E9AC
:104F300000230830109014461D46002A73F100002B
:104F4000C0F2338701230999002903DB089F27F06A
:104F50008000089054EA050240F0F183099A002A83
:104F600040F0ED83002B40F05786089BD90741F1B4
:104F70000C8042AF302007F8410D079AD41B0E94E5
:104F8000099C0E989DF873301294A042B8BF204639
:104F900000220B90149213B10B9B591C0B91089B90
:104FA00013F00200099002D00B998C1C0B94089A04
:104FB00012F0840B40F028820D9D0B9BED1A002D02
:104FC00040F32282102D41F30682279A269BA449A2
:104FD000102431601A9111195A1CA5F1110E072ADB
:104FE0007460CEF300132791269200F37085083683
:104FF000103D102D40F3FC818BB1013249F6703326
:105000001031C0F60003072A86E81800279126927F
:1050100000F36C850836103D102D40F3E9813346CE
:10502000CDF86CB02E46BB460A9D0C9F13E00833AA
:10503000013249F670301031C0F60000103E072AE8
:1050400083E811002791269200F3BE81103E0833B9
:10505000102E40F3C881013249F670301031C0F68D
:105060000000072A83E8110027912692DFDD3846E9
:10507000294625AA03F03EFEE8B92799269A32ABC5
:10508000D6E70D9A109352420D92089B43F004020A
:1050900008929AF80080B1E60C980A9925AA03F0C4
:1050A00029FE40B932AE94E6279B23B10C980A99A9
:1050B00025AA03F01FFE0A9881890F9801F040028B
:1050C00013B2002B18BF4FF0FF3043B0BDE8F08F94
:1050D000544681E60898C50600F15B8608994C069F
:1050E00040F15786109A109FB2F90040381DE5171D
:1050F00022462B46109020E7109BDD1D25F007016E
:1051000001F108001090D1E900450023FFE6109C52
:10511000E11D21F0070000F1080710974468D0F85E
:1051200000B021465846CDE916012146584603F005
:105130007DFD01282146584640F038870022002393
:10514000FFF7BAFA002841F037829DF87330002744
:105150000899129703244348434F0B9421F080028F
:105160000E940024B8F1470FD8BF07460892149454
:1051700011E7109A109B12680433002A0D9280DB0D
:105180009AF80080109339E6384F1897089FB906AF
:105190001FD5109CE01D20F00703D3E9004503F163
:1051A000080110910898C70740F1828454EA05026B
:1051B00000F07E84302240F002078DF874208DF8D4
:1051C000758008970223A2E6089F294DB906189515
:1051D000DFD4089CE20600F1F1850898430640F10F
:1051E000ED85109B191D1C8810910025DAE7109C95
:1051F000E31D23F0070101F108001090D1E90045FB
:10520000012384E69DF87330002B40F003878DF86E
:1052100073009AF80080F1E5089B43F001020892C0
:105220009AF80080EAE5544614F8018BB8F12A0F89
:1052300001F0C982A8F130030022092B01F2068295
:1052400014F8018B02EB820203EB4202A8F1300357
:10525000092BA246F4D942EAE2720992D0E500BFD6
:10526000709B00081C9B0008209B0008409B0008C6
:105270002C9B0008609B0008109F10993C6801233C
:1052800000200A1D8DF873000B9310928DF8A0403A
:105290000E9328AF00221292149280E6089A42F0F0
:1052A000080308939AF80080A8E58DF873109AF81F
:1052B0000080A3E5089CA10640F1B08610990F9AE2
:1052C00010980B68D417011D1A605C6010915EE5A0
:1052D000109D00248DF873402F680435002F01F0D5
:1052E000F480099A002A3846C1F251802146099A71
:1052F00002F04EFE002801F08F8109991294C01B24
:1053000088420E9040F3E38721EAE17009990B90FF
:105310009DF8733010950E9114943CE6089B43F071
:10532000400208929AF8008068E5109D109928685C
:10533000089B0F1DAA49109743F002024FF078080E
:10534000044630208DF87580002508928DF8740091
:1053500018910223DBE5089B43F0200208929AF89B
:1053600000804BE59AF80080B8F16C0F534600F0CE
:105370000087089A42F0100308933FE5B8F1000F48
:105380003FF492AE012700240B970E978DF8A08072
:105390008DF8734028AF7DE7089A42F080030893A8
:1053A0009AF800802AE552460023A8F1300512F849
:1053B000018BA8F1300403EB8303092C05EB4303B5
:1053C0009246F2D90D931BE53846294625AA03F0EB
:1053D00091FC00287FF46FAE103E102E32AB27995F
:1053E000269A3FF738AE5F46DDF86CB035461E466C
:1053F000501C1A9B4C19072886E8280027942690F1
:1054000000F30F84083600E0279C9DF8731069B103
:10541000269B581C013401210DF1730207283260CC
:1054200071602794269000F3FE820836099B63B1D1
:105430002698411C023402231DAA0729326073609A
:105440002794269100F3FA820836BBF1800F00F012
:105450002D82129D0E9AAD1A002D6FDD102D40F396
:10546000FA8526995F48C6F800904FF0100B4A1C49
:10547000A5F1110C5C44072AC6F804B009902794E2
:105480002692CCF3001300F3A9820836103D102DAC
:1054900049DD63B101321034072A86E8000A2794F7
:1054A000269200F3A9820836103D102D3BDD3146CF
:1054B000204646463C46DDF828800C9F0DE008312A
:1054C00001321030103D072A81E8000A2692279009
:1054D00017DC103D0831102D21DD01321030072A74
:1054E00081E8000A27902692E9DD3846414625AA40
:1054F00003F000FC00287FF4DEAD2798269A32A93D
:10550000DEE73846414625AA03F0F4FB00287FF485
:10551000D2AD103D102D32A92798269ADDDCB04679
:1055200027460E460446501C099B6419072886E846
:1055300028002794269000F36B820836089BDA0532
:1055400000F1288126980E9A0E993760431CA41802
:10555000072B71602794269300F3B0800836089AD1
:10556000530740F1B9800D9D0B982D1A002D40F383
:10557000B380102D40F3CF87269BDFF86C8049F66F
:105580007037C0F600073760591C1027A5F1110BC2
:10559000E41907297760CBF3001B2794269100F3C9
:1055A000C6830836103D102D40F3B680BBF1000FC6
:1055B00011D0013149F670301034C0F600000729CF
:1055C00086E881002794269100F3D7830836103DA2
:1055D000102D40F3A1803246DDF830B00A9E18E06D
:1055E000409B0008609B0008709B00080832411C2B
:1055F00049F670301034C0F60000103D072982E8EB
:1056000081002691279477DC103D0832102D40F35D
:105610008280481C49F670311034C0F6000107281A
:1056200082E8820027942690E0DD5846314625AA7C
:1056300003F060FB00287FF43EAD279C269832AA39
:10564000D5E7119D012D40F37B84269B37605D1CBF
:1056500001340121072D71602794269500F37B8486
:105660000836159B13980135E418072D86E80900C4
:105670002794269500F37C840836DDE91601002284
:105680000023FFF70FF8002840F0D782119A013766
:10569000501E241801353760072D70602794269519
:1056A00000F38681083619980135241821AB072D9F
:1056B00033607060279426957FF750AF0C980A9955
:1056C00025AA03F017FB00287FF4F5AC089A279C65
:1056D000530732AE3FF547AF0F980B990D9A9142A1
:1056E000ACBF401880180F90002C40F06D81002452
:1056F000269432AEFFF74BBB5846314625AA03F03D
:10570000F9FA00287FF4D7AC103D102D32AA279C5F
:1057100026993FF77EAF16464B1C2C19072BC6F86F
:105720000080756027942693D6DD0C980A9925AAE7
:1057300003F0E0FA00287FF4BEAC279CCCE7012BF5
:1057400000F0A881022B0DF1C70C00F08781072320
:105750004FEAD40E04EA03004EEA457BE9083030F4
:105760005C460D46C0B254EA050167468CF800005D
:105770000CF1FF3CECD1089AD4073B4605D5302804
:1057800003D03024674603F8014C079CE21B0E92BD
:10579000FFF7F6BBB8F1650F7FF753AFDDE91601F0
:1057A00000220023FEF77EFF002800F0AC8126983F
:1057B000A849431C01340122072B316072602794F1
:1057C000269300F34D8408361E98119B984203DB04
:1057D0000899CB077FF5C3AE269B1598139A706086
:1057E000591C2418072932602794269100F37985E3
:1057F0000836119D013D002D7FF7B1AE102D40F30D
:1058000088822698119AC6F800901027411CA2F1B0
:10581000120EE41907297760DFF83CB2279426912D
:10582000CEF3001800F310860836103D102D40F31B
:105830007382B8F1000F0ED0013110340729C6F879
:10584000009077602794269100F30B860836103D70
:10585000102D40F361822046DDF830800A9C10E074
:105860000836591C1030103D0729C6F800907760A3
:105870002691279000F31F810836103D102D40F32C
:10588000E8834B1C1030072BC6F8009077602790F8
:105890002693E5DD4046214625AA03F02BFA002891
:1058A0007FF409AC2798269B32AEDAE70D9D0B9862
:1058B0002D1A002D7FF7CDAD102D40F3A886269828
:1058C000654AC6F800904FF0100B0130A5F11103A6
:1058D0005C440728C6F804B0099227942690C3F3C5
:1058E000001300F313830836103D102D48DD63B11B
:1058F00001301034072886E8000A2794269000F328
:1059000013830836103D102D3ADD214632460C9C9B
:105910002E4603460A9D0DE00832431C1031103E0E
:10592000072B82E8000A2693279117DC103E0832E5
:10593000102E21DD581C1031072882E8000A27911B
:105940002690E9DD2046294625AA03F0D3F9002850
:105950007FF4B1AB2799269832AADEE72046294684
:1059600025AA03F0C7F900287FF4A5AB103E102E3E
:1059700032AA2799269BDDDC35460C46164618468A
:10598000411C099B6419072986E828002794269161
:1059900000F3008308365CE52F4A09920135099B24
:1059A000E419072D86E88800279426957FF77AAEBC
:1059B0000C980A9925AA03F09DF900287FF47BAB87
:1059C00032AE279C269D6EE60C980A9925AA03F014
:1059D00091F900283FF48BAEFFF76DBB0C980A9944
:1059E000069325AA03F086F9069B00287FF463AB93
:1059F00032AE279C269A49E50C980A9925AA03F00D
:105A000079F900287FF457AB32AE279C269A4BE5F4
:105A10000C980A9925AA03F06DF900287FF44BAB86
:105A2000279C32AE8AE50C980A9925AA03F062F900
:105A300000287FF440AB279C32AEF7E40C980A991B
:105A400025AA03F057F900287FF435AB279C32AE26
:105A5000FBE400BF5C9B0008609B0008DDF860E091
:105A60000B960F2104EA01060EEB060027092A090E
:105A700047EA05740378154654EA050267468CF830
:105A800000300CF1FF3CEDD107990B9EC81B0E9026
:105A9000FFF776BA002D08BF0A2C80F0548142AF80
:105AA000303407F8414D079BD91B0E91FFF768BAB8
:105AB0000223FFF72CBA4046214625AA03F01AF923
:105AC00000287FF4F8AA32AE27982699D5E60C98DC
:105AD0000A99069325AA03F00DF9069B00287FF486
